:020000040000fa
:080000000001040000000000f3
:020000040000fa
:100200006f8020000eff20000e018800000000001b
:10021000000020000000e000020032000001200089
:10022000200288000c00070020262000010020008a
:1002300011000700000020000000e0000200320072
:1002400000000200000000009e010200000000000b
:100250000040da000000fe004440a9000000200039
:100260000000e0000300320000002000a001880030
:100270004440a8000000060091018800800078003a
:100280000000eb0015003700e280400032a0b4000f
:100290009101ba00e280400032a0b4009102ba009d
:1002a000e280400032a0b4000002eb00472bde00e9
:1002b000f507b200602ce10004003a000059eb00a1
:1002c0008301e900fdff3e00040037006128e100e2
:1002d000010032000082eb00040007001101ba00a7
:1002e0000200e000e8ff3a00000006003159ba00c1
:1002f0008301e9000c0032002159ba008301e900b2
:10030000080032000400e00003003a00e2804000f0
:1003100032a0b400f5ff370011d9ba008301e9001b
:10032000faff3a008100e800e180400032a0b4000a
:0c033000000006000040da000000fe00a3
:020000040000fa
:0200000401f009
:04000000f3bf00004a
:020000040000fa
:0200000401f009
:04000400ff7f00007a
:020000040000fa
:0200000401f009
:04000800fcff0000f9
:020000040000fa
:0200000401f009
:04001400ffff0000ea
:020000040000fa
:100008009a0100009a0100009a0100009a0100007c
:100018009a0100009a0100009a0100009a0100006c
:10002800120200009a0100009a0100009a010000e3
:100038009a0100009a0100009a0100009a0100004c
:100048009a0100009a0100009a0100009a0100003c
:100058009a0100009a0100009a0100009a0100002c
:100068009a0100009a0100009a0100009a0100001c
:100078009a0100009a0100009a0100003202000073
:100088009a0100009a0100009a0100009a010000fc
:100098009a0100009a0100009a0100009a010000ec
:1000a8009a0100009a0100009a0100009a010000dc
:1000b8009a0100009a0100009a0100009a010000cc
:1000c8009a0100009a0100009a0100009a010000bc
:1000d8009a0100009a0100009a0100009a010000ac
:1000e8009a0100009a0100009a0100009a0100009c
:0800f8009a0100009a010000ca
:020000040000fa
:100108009a0100009a0100009a0100009a0100007b
:100118009a0100009a0100009a0100009a0100006b
:10012800120200009a0100009a0100009a010000e2
:100138009a0100009a0100009a0100009a0100004b
:100148009a0100009a0100009a0100009a0100003b
:100158009a0100009a0100009a0100009a0100002b
:100168009a0100009a0100009a0100009a0100001b
:100178009a0100009a0100009a0100003202000072
:100188009a0100009a0100009a0100009a010000fb
:100198009a0100009a0100009a0100009a010000eb
:1001a8009a0100009a0100009a0100009a010000db
:1001b8009a0100009a0100009a0100009a010000cb
:1001c8009a0100009a0100009a0100009a010000bb
:1001d8009a0100009a0100009a0100009a010000ab
:1001e8009a0100009a0100009a0100009a0100009b
:0801f8009a0100009a010000c9
:020000040000fa
:10033c000000fa0002000700cfc2a900ffff37003f
:10034c000000fa0005e1a800240880000440a00089
:10035c000450a100240888000421a90011e1a80080
:10036c00840880000440a0000450a1008408880088
:10037c001021a90013e1a800940880000440a000fb
:10038c000450a100940888001221a9001fe1a800c4
:10039c00f40880000440a0000450a100f408880078
:1003ac001e21a9000403200014088800f42f21004a
:1003bc0064088800f4ff200074088800d242a90069
:1003cc00d202a900d262a900cdc2a900d222a800f3
:1003dc00d222a800d902a8008c00a8008ee0a800a8
:1003ec0086e0a9008400a900a40480000400a000f9
:1003fc000410a0000420a100a4048800b404800010
:10040c000480a1000490a10004a0a000b404880002
:10041c000080fa0000000600801f7800841f78001e
:10042c003400f80000002000a00188000000fa0051
:10043c008400a900244080000402e80024408800c5
:10044c00cfc2a8000080fa003400f9004f027800f7
:10045c004f007800004006000000fa0024408000a5
:10046c000402e900244088000080fa000000060025
:10047c000000fa000002eb00340888000002eb00d8
:10048c00a408880086a0a9000000000035048000a4
:10049c000402200004826200e00f5200fbff3200d5
:1004ac000002eb005408880084c0a90084e0a90075
:0804bc000080fa0000000600b8
:020000040000fa
:1004c400000800000600000000000000000000001a
:00000001FF
