:020000040000fa
:080000000001040000000000f3
:020000040000fa
:10020000af8320000eff20000e01880000000000d8
:10021000000020000000e000020032000001200089
:10022000200288000c000700a073200001002000bd
:1002300011000700000020000000e0000200320072
:100240000000020000000000b604020000000000f0
:100250000040da000000fe004440a90040002000f9
:100260000000e0000300320000002000a001880030
:100270004440a8000000060091018800800078003a
:100280000000eb0015003700e280400032a0b4000f
:100290009101ba00e280400032a0b4009102ba009d
:1002a000e280400032a0b4000002eb00472bde00e9
:1002b000f507b200602ce10004003a000059eb00a1
:1002c0008301e900fdff3e00040037006128e100e2
:1002d000010032000082eb00040007001101ba00a7
:1002e0000200e000e8ff3a00000006003159ba00c1
:1002f0008301e9000c0032002159ba008301e900b2
:10030000080032000400e00003003a00e2804000f0
:1003100032a0b400f5ff370011d9ba008301e9001b
:10032000faff3a008100e800e180400032a0b4000a
:10033000000006000040da000000fe0003f0a2000a
:10034000889fbe008a9fbe008c1f7800fa000700bd
:10035000010133006450e1004f0032006420e100ed
:100360005200320003826c0007003b000905d000f8
:100370000306d000820f54000c065d000200390015
:10038000020032008901780003067800858255005a
:1003900004003d000003fd008103fd008502ea002a
:1003a0008b854200840f720002003b006000100049
:1003b000e08018006011b8000005eb007a28e10029
:1003c0000a00390006007800c75ddd00f707b200bb
:1003d000878075002d003700828171000a01780046
:1003e000610560008180d1000080d3008502e900b2
:1003f000f9ff3b00060440008784480002003b00f0
:1004000060041400e0841c000988a3000700320087
:100410008a81710082817100610164008904d100c8
:100420000884d3008b05e800170037000978a30083
:1004300013003a000b00e000130034008b05e900c4
:100440000804440089844c000a4474000978a3001d
:100450000d003a000b00e000070034008b05e900b6
:100460000804440089844c0001003a000b0020007d
:100470000978a300f7ff32000001eb00020037000b
:10048000828171000a017800700007000cf0a7005b
:1004900001f0a000b90037006420e10002003a003a
:1004a000838f6c00b90033000801be000200be005b
:1004b000b2003700889fbe008a9fbe008c1f780064
:1004c0009d000700a400330003866c006450e10027
:1004d0002e0032006420e100330032006150e10060
:1004e0002f0032006120e100310032008585550087
:1004f000eb07b000090020000804200005003700c9
:100500000804440089844c000a00310006034300bb
:1005100087834b000001530081815b00f8ff3300ab
:100520000203be000800a0000804440089844c00b7
:10053000f6ff3900c639dd00830173000100320087
:10054000130020008904d1000884d3000998a30077
:10055000050032000800a7000300a0008904d100b4
:100560000884d3008b05e8008904d1000884d300f7
:100570000001eb000281d2003400070001f0a1006d
:100580000cf0a70001f0a0007c0037006420e1001f
:100590007e0032000801be000200be00f7ff3700f7
:1005a0006120e100790032006000b800f3ff3700fd
:1005b0000000200001f82700f0ff37000001be0016
:1005c000480007000470a70003f0a1006509b1000e
:1005d000160032000d0035006828e10006003500e5
:1005e000f0ff2f00f1ff27000300e00013003b00a5
:1005f0000100280000000500000040008180480044
:100600008502e900fcff3a0008003700f88f42003d
:1006100002003c008000eb00000005008100d100da
:100620000080d3008502e800fcff3a000300e000f0
:1006300002003b0060001000e0801800000006008f
:100640004f89de008201780087003700810020009a
:10065000618055000b003d000b00200061fe2f0063
:100660000100e1001d00340082817100610164001d
:100670008904d1000884d3000000e800faff3a00a2
:10068000710020006100640003007000020060003f
:100690000900320061044400e0844c000988a50090
:1006a000050032008b05e8006808e10002003a000e
:1006b0008904d1000884d300f20f20000258e10021
:1006c00005003d00c75ddd00f907b20089807500b7
:1006d00008007800000006000bf827008b00780067
:1006e00000000500c70ade00f107b200f50fb200f6
:1006f00008003200e1cf4200020032000170a00089
:1007000024000500810f700001003200040805007c
:1007100044000500810f700002003a00140005003b
:100720008502e9000000400081c04800fcff3b005a
:100730000170a000240005000004be00e9ff0700ce
:100740000003be000405be000200be00e5ff070076
:10075000844f7500000006000200be006450e100f6
:10076000050036006420e100020036000968a3009d
:1007700001003a000800be000160a0004f067800aa
:100780004f05be004f04be0000000600f0ff2f0022
:10079000f1ff2700f9ff3700889fbe008a9fbe0047
:1007a0008c1f7800e4ff0700ebff330003866c002a
:1007b0006450e100240032006420e1002700320090
:1007c0006150e100220032006120e100210032008e
:1007d0008b854200eb07b1000134b800003ab80045
:1007e0000804420089844a00013ab8000030b80089
:1007f0008880400009014a000400330000004000e6
:1008000081804800020149008b05e900c909dd002b
:10081000830170000100320013002000c814de00c4
:100820004814dd004709de001200b200c808de00ef
:100830000884700085ff070001f0a1000cf0a700fc
:1008400001f0a000cdff37006120e100cfff3200b2
:100850000801be000200be00f7ff37006150e10052
:10086000fcff3a00c9ff3700881f780003047800b6
:100870000300e00007003d0060001000e080180069
:1008800060011900e081190002003b0001f02d0019
:10089000030037000400070008f0a70001f0a000e3
:1008a0004f04780000000600889fbe008a9fbe00ab
:1008b0000082700004027100048271002600320080
:1008c0000004be000200be006011b8006b092000e9
:1008d000950220000182cf000a0039000541b100d5
:1008e0000082cf00070039000541b1000982cf0026
:1008f000040039000541b1000882cf000100390031
:100900000541b10005425200120032000a003b00ce
:1009100082817100610164008100d1000080d300f8
:100920008984d3000884d3008b05e8000442e800e2
:10093000f7ff3a00070037000804440089844c00a0
:1009400000004800818048008b05e9000442e9006e
:10095000f9ff3a003dff07004f05be004f04be00ff
:04096000000006008d
:020000040000fa
:0200000401f009
:04000000f3bf00004a
:020000040000fa
:0200000401f009
:04000400ff7f00007a
:020000040000fa
:0200000401f009
:04000800fcff0000f9
:020000040000fa
:0200000401f009
:04001400ffff0000ea
:020000040000fa
:100008009a0100009a0100009a0100009a0100007c
:100018009a0100009a0100009a0100009a0100006c
:100028004a0500009a0100009a0100009a010000a8
:100038009a0100009a0100009a0100009a0100004c
:100048009a0100009a0100009a0100009a0100003c
:100058009a0100009a0100009a0100009a0100002c
:100068009a0100009a0100009a0100009a0100001c
:100078009a0100009a0100009a010000780500002a
:100088009a0100009a0100009a0100009a010000fc
:100098009a0100009a0100009a0100009a010000ec
:1000a8009a0100009a0100009a0100009a010000dc
:1000b8009a0100009a0100009a0100009a010000cc
:1000c8009a0100009a0100009a0100009a010000bc
:1000d8009a0100009a0100009a0100009a010000ac
:1000e8009a0100009a0100009a0100009a0100009c
:0800f8009a0100009a010000ca
:020000040000fa
:100108009a0100009a0100009a0100009a0100007b
:100118009a0100009a0100009a0100009a0100006b
:100128004a0500009a0100009a0100009a010000a7
:100138009a0100009a0100009a0100009a0100004b
:100148009a0100009a0100009a0100009a0100003b
:100158009a0100009a0100009a0100009a0100002b
:100168009a0100009a0100009a0100009a0100001b
:100178009a0100009a0100009a0100007805000029
:100188009a0100009a0100009a0100009a010000fb
:100198009a0100009a0100009a0100009a010000eb
:1001a8009a0100009a0100009a0100009a010000db
:1001b8009a0100009a0100009a0100009a010000cb
:1001c8009a0100009a0100009a0100009a010000bb
:1001d8009a0100009a0100009a0100009a010000ab
:1001e8009a0100009a0100009a0100009a0100009b
:0801f8009a0100009a010000c9
:020000040000fa
:0809640097b800005c370000a9
:020000040000fa
:10096c000000fa000d00070020010700cfc2a9000b
:10097c00d442a900d402a9008460a90000000000a0
:10098c002404800068026200e00f5200fcff320079
:10099c00a7000700bf000700f7ff37000000fa00b0
:1009ac0005e1a800240880000440a0000450a10028
:1009bc00240888000421a90011e1a8008408800003
:1009cc000440a0000450a100840888001021a90054
:1009dc0013e1a800940880000440a0000450a1007a
:1009ec00940888001221a9001fe1a800f4088000d7
:1009fc000440a0000450a100f40888001e21a900a6
:100a0c0004032000140888007492240064088800f1
:100a1c0014ea200074088800d242a900d202a9006e
:100a2c00d262a900cdc2a900d222a800d222a8006d
:100a3c00d902a8008c00a8008ee0a80086e0a900ce
:100a4c008400a900a40480000400a1000410a100eb
:100a5c000420a000a4048800f404800004c0a000ba
:100a6c0004d0a00004e0a100f4048800b4048000c9
:100a7c000480a0000490a10004a0a000b40488008d
:100a8c000080fa00000006003600f800809fbe00cf
:100a9c00829fbe00849fbe00869fbe003400f8007b
:100aac0000002000a00188000000fa008400a900ca
:100abc00b441800074025200b4418800cfc2a80037
:100acc00ca0007000080fa003400f9004f03be0092
:100adc004f02be004f01be004f00be003600f900b1
:100aec00004006003600f800809fbe00829fbe00ca
:100afc00849fbe00869fbe003400f80000002000da
:100b0c00a00188000000fa0086e0a900b441800032
:100b1c0074024200b4418800b4000700cfc2a9009f
:100b2c000080fa003400f9004f03be004f02be00f3
:100b3c004f01be004f00be003600f9000040060019
:100b4c000000fa000002eb00340888000002eb0001
:100b5c00540888000002eb00a408880086a0a900b5
:100b6c000002eb005408880084c0a90084e0a900ae
:100b7c000080fa00000006000400fa00008fbe009e
:100b8c001e01be000000200001f8230046fe0700f5
:100b9c000002be00b4408800c5408800b44080000c
:100bac00c540800002002000030024000400be00a9
:100bbc003dfe07000002be0094408800a54088005e
:100bcc0094408000a5408000544088006540880017
:100bdc00564080006740800094258400a525840041
:100bec000401be000600be002ffe07000002be007e
:100bfc0034408800454088003440800045408000e7
:100c0c0002002000030024000400be0026fe0700a2
:100c1c000002be000400be0065fe07000002be001c
:100c2c0004027800040078000080fa00000006003e
:100c3c000000fa00250480000404200004826200f5
:100c4c00e00f520006003200644180000482ea008a
:100c5c006441880084c0a9000002eb002441880094
:100c6c00250480000408200004826200e00f52007a
:100c7c0006003200744180000482ea00744188004e
:100c8c0084e0a9000002eb00344188000080fa00e7
:100c9c00000006000000fa0064418000e00f5200e2
:100cac001600320025418000e4408000848f520001
:100cbc0011003d00a41680004222de006142620059
:100ccc0004c2ea00614262000482fb00610262001d
:100cdc004222dd00a6168000b5ff2f0085026300be
:100cec0005027200a4168800244180000402e8006a
:100cfc002441880001003700d442a90074418000cf
:100d0c00e00f52001500320035418000f4408000a5
:100d1c00848f520010003d00a4168000044278001d
:100d2c006142620004c2ea00614262000482fb007c
:100d3c0061026200a6168000e5ff2f0085026300a9
:100d4c0005027200a4168800344180000402e800f9
:100d5c003441880001003700d402a9000080fa0059
:100d6c00000006000200fa00889fbe00000f780009
:100d7c0094418000a54180000401be000400be0027
:100d8c006cfd07000002be000404be001e027800c9
:100d9c00cfa2de000400be0026fe07000002be004b
:100dac000401be000800be0078fe07000002be0071
:100dbc000401be000000200001f82300bafd07006a
:100dcc000002be000400be00f9fd07000002be00d8
:100ddc00040278008441880084418000040078007b
:100dec004f04be000080fa00000006000000fa006c
:100dfc00b4418000cfa2de000400be000dfe07004f
:100e0c000002be000400be005bff07000002780079
:100e1c00e4408800c4418000cfa2de000400be0084
:100e2c0004fe07000002be000400be0052ff0700d3
:100e3c0000027800f4408800b4418000040078007f
:100e4c00c8ff07000002780064088800c4418000d5
:100e5c0004007800c3ff07000002780074088800c3
:080e6c000080fa0000000600fe
:020000040000fa
:100e740000080000320000000000000032080000fa
:100e8400080000000200000033588f0034fa00000c
:080e9400f40100000000000061
:00000001FF
